{
  "contractName": "SubjectChoosing",
  "abi": [
    {
      "anonymous": false,
      "inputs": [
        {
          "indexed": false,
          "internalType": "address",
          "name": "student",
          "type": "address"
        },
        {
          "indexed": false,
          "internalType": "string",
          "name": "subject",
          "type": "string"
        },
        {
          "indexed": false,
          "internalType": "string",
          "name": "usn",
          "type": "string"
        }
      ],
      "name": "SubjectChosen",
      "type": "event"
    },
    {
      "inputs": [
        {
          "internalType": "address",
          "name": "",
          "type": "address"
        }
      ],
      "name": "studentSubjects",
      "outputs": [
        {
          "internalType": "string",
          "name": "",
          "type": "string"
        }
      ],
      "stateMutability": "view",
      "type": "function",
      "constant": true
    },
    {
      "inputs": [
        {
          "internalType": "address",
          "name": "",
          "type": "address"
        }
      ],
      "name": "studentUSNs",
      "outputs": [
        {
          "internalType": "string",
          "name": "",
          "type": "string"
        }
      ],
      "stateMutability": "view",
      "type": "function",
      "constant": true
    },
    {
      "inputs": [
        {
          "internalType": "string",
          "name": "_subject",
          "type": "string"
        },
        {
          "internalType": "string",
          "name": "_usn",
          "type": "string"
        }
      ],
      "name": "chooseSubject",
      "outputs": [],
      "stateMutability": "nonpayable",
      "type": "function"
    },
    {
      "inputs": [
        {
          "internalType": "address",
          "name": "student",
          "type": "address"
        }
      ],
      "name": "getStudentInfo",
      "outputs": [
        {
          "internalType": "string",
          "name": "subject",
          "type": "string"
        },
        {
          "internalType": "string",
          "name": "usn",
          "type": "string"
        }
      ],
      "stateMutability": "view",
      "type": "function",
      "constant": true
    }
  ],
  "bytecode": "0x608060405234801561001057600080fd5b5061093f806100206000396000f3fe608060405234801561001057600080fd5b506004361061004c5760003560e01c80634b82caec146100515780635732f0d21461008257806382ccd2791461009e578063fc58f28d146100ce575b600080fd5b61006b600480360381019061006691906105e5565b6100fe565b604051610079929190610729565b60405180910390f35b61009c6004803603810190610097919061060e565b61029f565b005b6100b860048036038101906100b391906105e5565b610385565b6040516100c59190610707565b60405180910390f35b6100e860048036038101906100e391906105e5565b610425565b6040516100f59190610707565b60405180910390f35b6060806000808473ffffffffffffffffffffffffffffffffffffffff1673ffffffffffffffffffffffffffffffffffffffff168152602001908152602001600020600160008573ffffffffffffffffffffffffffffffffffffffff1673ffffffffffffffffffffffffffffffffffffffff16815260200190815260200160002081805461018a90610851565b80601f01602080910402602001604051908101604052809291908181526020018280546101b690610851565b80156102035780601f106101d857610100808354040283529160200191610203565b820191906000526020600020905b8154815290600101906020018083116101e657829003601f168201915b5050505050915080805461021690610851565b80601f016020809104026020016040519081016040528092919081815260200182805461024290610851565b801561028f5780601f106102645761010080835404028352916020019161028f565b820191906000526020600020905b81548152906001019060200180831161027257829003601f168201915b5050505050905091509150915091565b816000803373ffffffffffffffffffffffffffffffffffffffff1673ffffffffffffffffffffffffffffffffffffffff16815260200190815260200160002090805190602001906102f19291906104c5565b5080600160003373ffffffffffffffffffffffffffffffffffffffff1673ffffffffffffffffffffffffffffffffffffffff16815260200190815260200160002090805190602001906103459291906104c5565b507fcc35752265a13f79892ad84352af91bf67f5383e9454e25eaee16136358248c6338383604051610379939291906106c2565b60405180910390a15050565b600060205280600052604060002060009150905080546103a490610851565b80601f01602080910402602001604051908101604052809291908181526020018280546103d090610851565b801561041d5780601f106103f25761010080835404028352916020019161041d565b820191906000526020600020905b81548152906001019060200180831161040057829003601f168201915b505050505081565b6001602052806000526040600020600091509050805461044490610851565b80601f016020809104026020016040519081016040528092919081815260200182805461047090610851565b80156104bd5780601f10610492576101008083540402835291602001916104bd565b820191906000526020600020905b8154815290600101906020018083116104a057829003601f168201915b505050505081565b8280546104d190610851565b90600052602060002090601f0160209004810192826104f3576000855561053a565b82601f1061050c57805160ff191683800117855561053a565b8280016001018555821561053a579182015b8281111561053957825182559160200191906001019061051e565b5b509050610547919061054b565b5090565b5b8082111561056457600081600090555060010161054c565b5090565b600061057b61057684610791565b610760565b90508281526020810184848401111561059357600080fd5b61059e84828561080f565b509392505050565b6000813590506105b5816108f2565b92915050565b600082601f8301126105cc57600080fd5b81356105dc848260208601610568565b91505092915050565b6000602082840312156105f757600080fd5b6000610605848285016105a6565b91505092915050565b6000806040838503121561062157600080fd5b600083013567ffffffffffffffff81111561063b57600080fd5b610647858286016105bb565b925050602083013567ffffffffffffffff81111561066457600080fd5b610670858286016105bb565b9150509250929050565b610683816107dd565b82525050565b6000610694826107c1565b61069e81856107cc565b93506106ae81856020860161081e565b6106b7816108e1565b840191505092915050565b60006060820190506106d7600083018661067a565b81810360208301526106e98185610689565b905081810360408301526106fd8184610689565b9050949350505050565b600060208201905081810360008301526107218184610689565b905092915050565b600060408201905081810360008301526107438185610689565b905081810360208301526107578184610689565b90509392505050565b6000604051905081810181811067ffffffffffffffff82111715610787576107866108b2565b5b8060405250919050565b600067ffffffffffffffff8211156107ac576107ab6108b2565b5b601f19601f8301169050602081019050919050565b600081519050919050565b600082825260208201905092915050565b60006107e8826107ef565b9050919050565b600073ffffffffffffffffffffffffffffffffffffffff82169050919050565b82818337600083830152505050565b60005b8381101561083c578082015181840152602081019050610821565b8381111561084b576000848401525b50505050565b6000600282049050600182168061086957607f821691505b6020821081141561087d5761087c610883565b5b50919050565b7f4e487b7100000000000000000000000000000000000000000000000000000000600052602260045260246000fd5b7f4e487b7100000000000000000000000000000000000000000000000000000000600052604160045260246000fd5b6000601f19601f8301169050919050565b6108fb816107dd565b811461090657600080fd5b5056fea2646970667358221220c4a470b5467e6e92e5c8aefa4d5ac5ca4eb987f589c652bd756e07d9e50fed1664736f6c63430008000033",
  "immutableReferences": {},
  "source": "// SPDX-License-Identifier: MIT\r\npragma solidity ^0.8.0;\r\n\r\ncontract SubjectChoosing {\r\n    mapping(address => string) public studentSubjects;\r\n    mapping(address => string) public studentUSNs;\r\n\r\n    event SubjectChosen(address student, string subject, string usn);\r\n\r\n    function chooseSubject(string memory _subject, string memory _usn) public {\r\n        studentSubjects[msg.sender] = _subject;\r\n        studentUSNs[msg.sender] = _usn;\r\n        emit SubjectChosen(msg.sender, _subject, _usn);\r\n    }\r\n\r\n    // Optional: Function to get both subject and USN for a student\r\n    function getStudentInfo(address student) public view returns (string memory subject, string memory usn) {\r\n        return (studentSubjects[student], studentUSNs[student]);\r\n    }\r\n}\r\n",
  "sourcePath": "C:\\Users\\abbav\\Documents\\Blockchain\\subjectchoosing\\contracts\\SubjectChoosing.sol",
  "compiler": {
    "name": "solc",
    "version": "0.8.0+commit.c7dfd78e.Emscripten.clang"
  },
  "schemaVersion": "3.4.16",
  "updatedAt": "2024-05-17T04:02:40.462Z",
  "networkType": "ethereum",
  "devdoc": {
    "kind": "dev",
    "methods": {},
    "version": 1
  },
  "userdoc": {
    "kind": "user",
    "methods": {},
    "version": 1
  }
}